:020000040800F2
:100000004004002045010008B9040008BB040008B2
:10001000BF040008C3040008C70400080000000073
:10002000000000000000000000000000CB040008F9
:10003000CD04000800000000CF040008D10400082F
:100040005F0100085F0100085F0100085F01000810
:100050005F0100085F0100085F0100085F01000800
:100060005F0100085F0100085F0100085F010008F0
:100070005F0100085F0100085F0100085F010008E0
:100080005F0100085F0100085F0100085F010008D0
:100090005F0100085F0100085F0100085F010008C0
:1000A0005F0100085F0100085F0100085F010008B0
:1000B000D90400085F0100085F0100085F01000823
:1000C0005F0100085F0100085F0100085F01000890
:1000D0005F0100085F0100085F0100085F01000880
:1000E0005F0100085F0100085F0100085F01000870
:1000F0005F0100085F0100085F0100085F01000860
:100100005F0100085F0100085F0100085F0100084F
:100110005F0100085F0100085F0100085F0100083F
:100120005F0100085F0100085F0100085F0100082F
:10013000DFF80CD001F03EFE004800473D02000809
:10014000400400200648804706480047FEE7FEE7D7
:10015000FEE7FEE7FEE7FEE7FEE7FEE7FEE7FEE777
:10016000A31C0008310100082DE9FF4105460024C9
:100170000026284601F016FEC7B24FF496780020FC
:10018000029003900090019000BF0AE02878203888
:10019000C24901EBC000005D80100DF80400601C36
:1001A000C4B2082CF2DB012F0CD1002407E01DF8AB
:1001B0000410621CD0B200F04CFA601CC4B2082CCF
:1001C000F5DB39E034E0012625E0002410E0687812
:1001D0002038B24901EBC000005DC6F108010841BA
:1001E0001DF80410B140084302A90855601CC4B2B0
:1001F000082CECDB002407E002AA115D621CD0B2DF
:1002000000F027FA601CC4B2082CF5DB404600F071
:10021000BCF9701CC6B2072ED7DB6D1C002405E0AC
:1002200002A8005D0DF80400601CC4B2082CF7DBC6
:10023000781EC0B20700C6D1BDE8FF8100F0CEF93C
:1002400000F05CF900F017FA322000F08CF90DE0B4
:100250009348FFF789FF4FF4967000F096F991A04C
:10026000FFF782FF4FF4967000F08FF9F0E77CB54E
:1002700005460E46002000900190701E802141FA34
:1002800000F0691E0DF80100012407E0601E1DF852
:100290000010204600F0DDF9601CC4B2092CF5DB2B
:1002A0007CBD2DE9F041824E1827012501242BE069
:1002B00021462846FFF7DBFF082D04DA082C02DA76
:1002C000681CC5B21DE0082D04D1082C02DA601CA0
:1002D000C4B216E0082C04D1012D02D0681EC5B2AC
:1002E0000FE0082C0DD1012D0BD108E02146284646
:1002F000FFF7BDFF601EC4B2304600F034F9012C98
:10030000F4DC304600F02FF93800A7F10101CFB23C
:10031000CED1BDE8F08170B501250124644E0EE018
:1003200008E028466A1CD5B22146FFF7A0FF3046F8
:1003300000F019F9092DF4DB601CC4B200250A2C69
:10034000EEDB70BD2DE9FC470746012408254FF080
:1003500008080826DFF85C9100200090019006E074
:100360004E4800EBC701701E095C0DF8001030000C
:10037000A6F10101CEB2F3D11CE0012407E0601E1A
:100380001DF80010204600F064F9601CC4B2092C6E
:10039000F5DB07E0681E1DF800004006010E681E30
:1003A0000DF800102800A5F10101CDB2F2D14846A8
:1003B00000F0D9F85FEA0800A8F1010101F0FF0898
:1003C000DBD1BDE8FC872DE9FF410646002400256E
:1003D000C8270020029003900090019000BF09E020
:1003E00030782E4901EBC000005D80100DF804004C
:1003F000601CC4B2082CF3DB002525E0002410E0CB
:100400003078401C254901EBC000005DC5F10801B2
:1004100008411DF80410A940084302A90855601CB2
:10042000C4B2082CECDB002407E002AA115D621CB8
:10043000D0B200F00EF9601CC4B2082CF5DB3846CF
:1004400000F0A3F8681CC5B2072DD7DB002405E037
:1004500002A8005D0DF80400601CC4B2082CF7DB94
:10046000BDE8FF8170B500240025212513E001249B
:1004700009E00A4800EBC502601E115C204600F04E
:10048000E8F8601CC4B2092CF3DB4FF47A7000F07A
:100490006AF8681CC5B2602DE9DB70BDF61D000866
:1004A0000800002031323334353637383930000017
:1004B000905F0100C0D40100704700BFFEE700BF9D
:1004C000FEE700BFFEE700BFFEE7704770477047DA
:1004D00010B500F06FF810BD10B50121880701F0CC
:1004E0005CFB40B10121880701F068FB02480078FD
:1004F000401C0149087010BD1100002030B5324881
:100500000068324AB0FBF2F1B1F1807F01D30120E3
:100510001DE021F07F40401E4FF0E0225061501757
:100520000F22002807DA13071D0E294B00F00F04D5
:10053000241F1D5503E013071C0E264B1C5400BF3F
:1005400000204FF0E022906107201061002008B1E8
:1005500000BFFEE74FF0E020006920F001004FF0FF
:10056000E021086130BD01B51B49009808604FF0DB
:10057000E020006940F001004FF0E021086100BF79
:10058000154800680028FBD108BD01B54FF47A7109
:1005900000984843104908604FF0E020006940F09F
:1005A00001004FF0E021086100BF0B4800680028FF
:1005B000FBD108BD0848006820B107480068401E0C
:1005C00005490860704700002C00002040420F00E1
:1005D00018ED00E000E400E01400002008B501215F
:1005E000042000F0CFF91520ADF8000010208DF8A0
:1005F000030003208DF8020069462A4800F086FABD
:100600001521284800F02FFB08BD70B504460025D1
:100610000421244800F029FB012517E0012121488D
:1006200000F023FB04F0800020B110211D4800F0F1
:100630001AFB03E010211B4800F017FB6006040EB4
:100640000121184800F00FFB681CC5B2082DE5DD3C
:1006500070BD70B505460C460421124800F005FB3C
:100660002846FFF7D2FF2046FFF7CFFF04210D48B1
:1006700000F0F9FA70BD10B500210920FFF7E9FF7D
:1006800003210A20FFF7E5FF07210B20FFF7E1FF19
:1006900001210C20FFF7DDFF00210F20FFF7D9FF1C
:1006A00010BD000000080140DF48006840F0010074
:1006B000DD49086008464068DC490840DA4948607E
:1006C00008460068DA490840D749086008460068CB
:1006D00020F4802008600846406820F4FE0048604E
:1006E0004FF41F0088607047CF49096821F48031BA
:1006F000CD4A11601146096821F480211160B0F5DE
:10070000803F03D0B0F5802F0ED106E0C6490968BE
:1007100041F48031C44A116007E0C349096841F4DB
:10072000A021C14A116000E000BF00BF704710B5B2
:1007300001460022002300204A11012A02D1BA4CAE
:10074000236806E0022A02D1B74C236A01E0B64CC6
:10075000636A01F01F02012494401C400CB1012087
:1007600000E0002010BD38B50020009000240025D6
:1007700000BF3120FFF7DBFF05460098401C0090CA
:100780000098B0F5A06F01D0002DF2D03120FFF716
:10079000CEFF08B1012400E00024204638BD014608
:1007A0000020A14A106820F0F80040EAC100106063
:1007B0007047A04908607047024600209A4B58686D
:1007C00020F47C1042EA01031843974B58607047AD
:1007D00098490866704701460020934A506820F007
:1007E00003000843506070478F48406800F00C00D9
:1007F0007047014600208C4A506820F0F000084302
:100800005060704701460020874A506820F4E0603D
:1008100008435060704701460020834A506820F426
:10082000605040EAC1005060704729B17E4A527A58
:1008300002437D4B5A7204E07B4A527A82437A4BE0
:100840005A7270477B49D8310860704701460020D2
:10085000754A506820F440400843506070470021BA
:10086000714A20321170704A82F82010012802D09B
:1008700004280AD104E001216B4A2032117005E0FE
:100880000521694A2032117000E000BF00BF7047A7
:100890006949086070476449096A0143624A116204
:1008A0007047654944390860704730B5002100221F
:1008B000002400235C4D6D6805F00C0121B1042972
:1008C00005D0082923D105E05C4D056022E05B4D91
:1008D00005601FE0544D6D6805F47012524D6D684F
:1008E00005F48034022505EB92421CB9544D554362
:1008F00005600BE04C4D6D6805F400351DB1504DA1
:100900005543056002E04D4D5543056002E04B4DF7
:10091000056000BF00BF444D6D6805F0F001090996
:10092000484D6B5C0568DD4045603F4D6D6805F4E2
:10093000E061090A434D6B5C4568DD4085603A4DD6
:100940006D6805F46051C90A3E4D6B5C4568DD4039
:10095000C560354D6D6805F44041890B3A4D6B5CBF
:10096000C568B5FBF3F5056130BD29B12E4A526962
:1009700002432D4B5A6104E02B4A526982432A4BB1
:100980005A61704729B1284A92690243264B9A61FD
:1009900004E0254A92698243234B9A61704729B14A
:1009A000214AD2690243204BDA6104E01E4AD2692F
:1009B00082431D4BDA61704729B11B4AD26802435A
:1009C000194BDA6004E0184AD2688243164BDA60A9
:1009D000704729B1144A12690243134B1A6104E0AB
:1009E000114A12698243104B1A617047124940390B
:1009F000086070470F49C86470470B49C871704759
:100A00000948406A40F080700749486270470146D3
:100A10000020054A92680A400AB1012000E0002047
:100A20007047014988727047001002400000FFF8CB
:100A3000FFFFF6FE000042428004424200127A00AC
:100A400000093D00180000202800002010B50446D1
:100A5000CC48844208D101210420FFF7ADFF0021DA
:100A60000420FFF7A9FF46E0C748844208D10121CE
:100A70000820FFF7A1FF00210820FFF79DFF3AE0C3
:100A8000C248844208D101211020FFF795FF0021C0
:100A90001020FFF791FF2EE0BD48844208D10121CC
:100AA0002020FFF789FF00212020FFF785FF22E0AB
:100AB000B848844208D101214020FFF77DFF002182
:100AC0004020FFF779FF16E0B348844208D10121A6
:100AD0008020FFF771FF00218020FFF76DFF0AE003
:100AE000AE48844207D101218015FFF765FF002140
:100AF000A015FFF761FF10BD10B501210846FFF7F3
:100B00005BFF00210120FFF757FF10BD2DE9F041E9
:100B1000024600250026002000230024002791F82B
:100B200003C00CF00F0591F803C00CF0100CBCF1E1
:100B3000000F03D091F802C04CEA050591F800C0FF
:100B4000BCF1000F31D0146800202BE04FF0010CF5
:100B50000CFA00F3B1F800C00CEA03069E4220D163
:100B600083004FF00F0C0CFA03F7BC4305FA03FCAB
:100B70004CEA040491F803C0BCF1280F06D14FF0F1
:100B8000010C0CFA00FCC2F814C00AE091F803C092
:100B9000BCF1480F05D14FF0010C0CFA00FCC2F873
:100BA00010C0401C0828D1D31460B1F800C0BCF1BB
:100BB000FF0F34DD546800202EE000F1080C4FF0E8
:100BC000010808FA0CF3B1F800C00CEA03069E42D3
:100BD00021D183004FF00F0C0CFA03F7BC4305FA48
:100BE00003FC4CEA040491F803C0BCF1280F05D1C2
:100BF00000F1080C08FA0CF8C2F8148091F803C050
:100C0000BCF1480F07D100F1080C4FF0010808FAB9
:100C10000CF8C2F81080401C0828CED35460BDE800
:100C2000F0814FF6FF710180022181700421C170B3
:100C300070470246002093680B400BB1012000E092
:100C4000002070470146886880B270470246002045
:100C5000D3680B400BB1012000E000207047014633
:100C6000C86880B2704701617047416170470AB13E
:100C7000016100E041617047C16070474FF480320C
:100C80000A4382618161826182698269704702469A
:100C90000020434B18684FF68073184040EA02105A
:100CA00008433F4B186070473E49C8617047F0B534
:100CB0000A46002300240021002500F00046B6F17A
:100CC000004F02D1364EF16901E0354E7168C0F334
:100CD000034583B200F44016B6F5401F08D121F059
:100CE00070612F4E766826F070662D4F7E6012E0A0
:100CF00000F48016B6F5801F06D1032606FA05F427
:100D0000A14341F0706106E0460D360103FA06F694
:100D1000B14341F0706122B1460D360103FA06F687
:100D2000314300F00046B6F1004F02D11C4EF16194
:100D300001E01B4E7160F0BD30B500228B071C0F27
:100D40000F2303FA04F2164B08338C1053F82430A7
:100D50009343134C08348D1044F8253023468C10EF
:100D600053F824308C07240F00FA04F423430C4C6E
:100D700008348D1044F8253030BD0A49DC31086054
:100D80007047000000080140000C014000100140C5
:100D90000014014000180140001C014000200140E7
:100DA000000001400000204210B50446FE48844285
:100DB00008D10121C014FFF7FFFD0021E014FFF767
:100DC000FBFDC4E0B4F1804F08D101210846FFF7D4
:100DD00000FE00210120FFF7FCFDB8E0F34884424B
:100DE00008D101210220FFF7F4FD00210220FFF7C6
:100DF000F0FDACE0EE48844208D101210420FFF769
:100E0000E8FD00210420FFF7E4FDA0E0E94884426A
:100E100008D101210820FFF7DCFD00210820FFF7A1
:100E2000D8FD94E0E448844208D101211020FFF766
:100E3000D0FD00211020FFF7CCFD88E0DF48844280
:100E400008D101212020FFF7C4FD00212020FFF759
:100E5000C0FD7CE0DA48844208D101214014FFF74C
:100E6000ABFD00216014FFF7A7FD70E0D548844278
:100E700009D10121C804FFF79FFD00214FF4002094
:100E8000FFF79AFD63E0D048844209D101210805AB
:100E9000FFF792FD00214FF48010FFF78DFD56E023
:100EA000CA48844209D101214805FFF785FD002188
:100EB0004FF40010FFF780FD49E0C548844208D197
:100EC00001214020FFF785FD00214020FFF781FD33
:100ED0003DE0C048844208D101218020FFF779FD20
:100EE00000218020FFF775FD31E0BB48844208D126
:100EF00001218015FFF76DFD0021A015FFF769FDA9
:100F000025E0B648844209D101210804FFF754FDC9
:100F100000214FF48030FFF74FFD18E0B0488442C5
:100F200009D101214804FFF747FD00214FF40030AB
:100F3000FFF742FD0BE0AB48844208D10121880451
:100F4000FFF73AFD00214FF48020FFF735FD10BD7B
:100F500000220288944B98420ED0994B98420BD0B5
:100F6000B0F1804F08D0914B984205D0904B9842F9
:100F700002D0904B984204D14FF68F731A404B88A1
:100F80001A438D4B984207D08C4B984204D04FF6B1
:100F9000FF431A40CB881A4302808B8883850B88D5
:100FA0000385814B98420BD0854B984208D08B4BE0
:100FB000984205D08A4B984202D08A4B984201D180
:100FC0000B7A038601238382704770B500240022C8
:100FD0000023058C4FF6FE7635400584028C83880D
:100FE000048B4FF68F752C40B51E2C400D882C437A
:100FF000751E2A400D892A434D882A436A4DA8420E
:101000000BD06F4DA84208D0744DA84205D0744D46
:10101000A84202D0734DA84213D14FF6F7752A406B
:101020004D892A434FF6FB752A408D882A434FF697
:10103000FF652B404FF6FF552B408D892B43CD8903
:101040002B4383800483CD888586028470BD70B570
:10105000002400220023058C4FF6EF7635400584EE
:10106000028C8388048B48F6FF752C404FF6FF45B1
:101070002C400D884FF6FF7606EA05252C434FF6E7
:10108000DF752A400D8906EA05152A434D8806EAD0
:1010900005152A43444DA84202D0494DA8421DD10E
:1010A0004FF67F752A404D894FF6FF7606EA051503
:1010B0002A434FF6BF752A408D8806EA05152A4354
:1010C0004FF6FF352B404FF2FF752B408D8906EA16
:1010D00085052B43CD8906EA85052B438380048350
:1010E000CD880587028470BD70B5002400220023DE
:1010F000058C4FF6FF6635400584028C8388848B0F
:101100004FF68F752C404FF6FC752C400D882C4304
:101110004FF6FF552A400D894FF6FF7606EA052562
:101120002A434D8806EA05252A431F4DA84202D0CE
:10113000234DA8421DD14FF2FF752A404D894FF62D
:10114000FF7606EA05252A434FF6FF352A408D88AB
:1011500006EA05252A434EF6FF752B404DF6FF752E
:101160002B408D8906EA05152B43CD8906EA051526
:101170002B4383808483CD888587028470BD70B5BE
:10118000002200230024058C4EF6FF7635400584AE
:10119000038C8488828B48F6FF752A404FF6FF4502
:1011A0002A400D8820E00000002C0140000400408F
:1011B00000080040000C00400010004000140040F7
:1011C00000340140004C01400050014000540140F7
:1011D00000180040001C004000200040004001407A
:1011E00000440140004801404FF6FF7606EA05251D
:1011F0002A434DF6FF752B400D8906EA05352B4332
:101200004D8806EA05352B43FA4DA84202D0FA4D27
:10121000A84208D14BF6FF752C408D894FF6FF761A
:1012200006EA85152C4384808283CD88A0F840503F
:10123000038470BD828B4FF2FF331A408283828B0E
:101240004FF6FF7303EA01231A4382837047F0B518
:101250000C461546002200210026078C4EF6FF7C26
:1012600007EA0C070784828B018C4FF6FF7707EAA9
:10127000043640F6FF473A404FF6FF7707EA052766
:101280003A434FF6FF7707EA03373A43D94FB8425C
:101290000ED0D94FB8420BD0B0F1804F08D0D74F05
:1012A000B84205D0D64FB84202D0D64FB84206D188
:1012B0004DF6FF77394046F48057394305E047F64D
:1012C000FF57394044F48057394382830184F0BD8D
:1012D000828B4FF6F3731A408283828B0A43828398
:1012E0007047F0B50C461546002200210026078CF9
:1012F0004FF6FF6C07EA0C070784828B018C4FF6D0
:10130000FF7707EA04264FF60C773A404FF6FF774F
:1013100007EA03172F433A43B64FB8420ED0B64FF1
:10132000B8420BD0B0F1804F08D0B44FB84205D0CE
:10133000B34FB84202D0B34FB84206D14FF6FF5771
:10134000394046F48077394305E04FF2FF57394082
:1013500044F48077394382830184F0BD028B4FF2DD
:10136000FF331A400283028B4FF6FF7303EA012317
:101370001A4302837047F0B50C461546002200213F
:101380000026078C4FF6EF7C07EA0C070784028BD8
:10139000018C4FF6FF7707EA041640F6FF473A4004
:1013A0004FF6FF7707EA03373A434FF6FF7707EA2E
:1013B00005273A438F4FB8420ED08F4FB8420BD01B
:1013C000B0F1804F08D08D4FB84205D08C4FB84255
:1013D00002D08C4FB84206D14FF6DF77394046F045
:1013E0001007394305E04FF65F77394044F01007A6
:1013F000394302830184F0BD028B4FF6F3731A4028
:101400000283028B0A4302837047F0B50C461546EF
:1014100000220021068C4FF6FE773E400684028BA8
:10142000018C4FF60C7632407E1C06EA03162E43E2
:101430003243704EB0420ED06F4EB0420BD0B0F17E
:10144000804F08D06D4EB04205D06D4EB04202D0F4
:101450006C4EB04206D14FF6FD76314044F00106A5
:10146000314305E04FF6F576314044F00106314353
:1014700002830184F0BD70B505460C465D48854287
:101480000ED05D4885420BD0B5F1804F08D05B4847
:10149000854205D05A48854202D05A48854200D13B
:1014A00000E000BF208850B92389A28861882846BF
:1014B000FFF7ABFFE1882846FFF79EFF25E0208875
:1014C00004280AD12389A28861882846FFF753FFA0
:1014D000E1882846FFF742FF17E0208808280AD154
:1014E0002389A28861882846FFF7FBFEE188284609
:1014F000FFF7EEFE09E02389A28861882846FFF7FE
:10150000A6FEE1882846FFF795FE70BD2DE9F04163
:1015100005460C4600260127608808B9022600E02F
:101520000026A088012801D1022700E00127208899
:10153000A0B92389A28861882846FFF766FFE18861
:101540002846FFF759FF23893A4631462846FFF7D8
:1015500012FFE1882846FFF701FF13E02389A288E4
:1015600061882846FFF707FFE1882846FFF7F6FE67
:1015700023893A4631462846FFF747FFE188284647
:10158000FFF73AFFBDE8F0810A884B881A438B8841
:101590001A43CB881A430B891A434B891A438B8908
:1015A0001A43A0F8442070474FF6FF718180002154
:1015B0000180C1804180017270470021018041801B
:1015C0008180C180018141818181C1817047002179
:1015D00001804180012181800021C180018170470B
:1015E0000021018041808180C18001814181818110
:1015F00070470000002C014000340140000400400E
:1016000000080040000C004021B1028842F00102B5
:10161000028004E002884FF6FE731A400280704791
:1016200031B1B0F8442042F40042A0F8442005E073
:10163000B0F84420C2F30E02A0F8442070471AB15B
:1016400083890B43838102E083898B4383817047C5
:101650008182704741EA0203A0F8483070471AB10E
:1016600083890B43838102E083898B4383817047A5
:1016700001894FF6F8721140018170470A46002136
:1016800001894FF68F73194011430181704730B5BE
:1016900004460D4629462046FFF7F0FF208940F01A
:1016A0000700208130BD2DE9F04104460D46164665
:1016B0001F46602D06D13B46012231462046FFF7EA
:1016C0005AFE05E03B46012231462046FFF79DFECB
:1016D00029462046FFF7D2FF208940F007002081ED
:1016E000BDE8F08130B50C4600210189C9B24FF642
:1016F000FF7505EA0325154325432943018130BDC4
:101700002DE9F04105460E4617469846002443460B
:101710003A4631462846FFF7E5FF2C894FF6F87028
:10172000044044F007044FF68F70044044F0700406
:101730002C81BDE8F081F0B504460D4616461F46E3
:101740003B46324629462046FFF7CCFF208940F42D
:1017500080402081F0BD0185828270470A460021C9
:1017600001884FF68F731940114301807047F0B51F
:101770000C4615461E460021002200230189028BDB
:10178000038C4FF6F877394021434FF6FC473A4037
:1017900040F201173A434FF6DD773B404FF6FF77B3
:1017A00007EA06172F433B43018102830384F0BD00
:1017B0000A460021018B4FF68F73194011430183B4
:1017C00070470A460021018B48F6FF7319404FF617
:1017D000FF7303EA02231943018370470A4600217D
:1017E000818B4FF68F7319401143818370470A46EE
:1017F0000021818B48F6FF7319404FF6FF7303EA0F
:10180000022319438183704721B1028842F080028C
:10181000028004E002884FF67F731A40028070470E
:1018200021B1828842F00402828004E082884FF66F
:10183000FB731A408280704721B1828842F008020F
:10184000828004E082884FF6F7731A4082807047E6
:1018500021B1828842F00102828004E082884FF642
:10186000FE731A40828070470A460021018B4FF6B2
:10187000F77319401143018370470A460021018B19
:101880004FF2FF7319404FF6FF7303EA0223194327
:10189000018370470A460021818B4FF6F773194088
:1018A0001143818370470A460021818B4FF2FF73F9
:1018B00019404FF6FF7303EA0223194381837047EF
:1018C0000A460021018B4FF6FB7319401143018337
:1018D00070470A460021018B4FF6FF3319404FF63F
:1018E000FF7303EA02231943018370470A4600216C
:1018F000818B4FF6FB7319401143818370470A4671
:101900000021818B4FF6FF3319404FF6FF7303EA36
:1019100002231943818370470A460021018B4FF649
:101920007F7319401143018370470A460021018BE0
:10193000C1F30E014FF6FF7303EA0223194301833B
:1019400070470A460021818B4FF67F73194011437F
:10195000818370470A460021818BC1F30E014FF647
:10196000FF7303EA02231943818370470A4600216B
:10197000018C4FF6FD7319401143018470470A46EC
:101980000021018C4FF6F773194011430184704711
:101990000A460021018C4FF6DF7319404FF6FF73A2
:1019A00003EA02131943018470470A460021018C9F
:1019B0004FF67F7319404FF6FF7303EA0213194382
:1019C000018470470A460021018C4FF6FF531940ED
:1019D0004FF6FF7303EA02231943018470470A4656
:1019E0000021018C4FF2FF7319404FF6FF7303EA99
:1019F00002231943018470470A460021018C4DF6E9
:101A0000FF7319404FF6FF7303EA02331943018451
:101A1000704730B5002301248C40A3B2048C9C4352
:101A20000484048C02FA01F5ADB22C43048430BD69
:101A300030B5002304248C40A3B2048C9C4304845E
:101A4000048C02FA01F5ADB22C43048430BD70B5AC
:101A50000346002000241846183001258D40ACB202
:101A60001D8CA5431D8409B1082909D100EB610033
:101A7000056825F0700505600568154305600EE0F2
:101A80000D1FC5F34E052844056825F4E0450560A3
:101A900005684FF6FF7606EA02263543056070BDFD
:101AA00021B1028842F00202028004E002884FF66F
:101AB000FD731A400280704721B1028842F004028F
:101AC000028004E002884FF6FB731A4002807047E0
:101AD00021B1828842F08002828004E082884FF641
:101AE0007F731A408280704702884FF6F7731A405E
:101AF000028002880A430280704782884FF68F7303
:101B00001A40828082880A438280704702894FF699
:101B1000F8731A40028102890A43028170470289E0
:101B20004FF67F731A40028102890A43028170478F
:101B3000818470478185704781867047018770472F
:101B400081877047A0F84010704702884FF6FF4326
:101B50001A40028002880A43028070470146888E3C
:101B600070470146088F70470146888F70470146CD
:101B7000B1F8400070470146888C70470146088DD7
:101B8000704702460020138A0B400BB1012000E091
:101B900000207047CA430282704730B502460020D9
:101BA00000230024158A05EA0103958905EA01044A
:101BB00013B10CB1012000E0002030BDCA43028205
:101BC000704700000CB50020019000906C48006840
:101BD00040F480306A49086000BF6948006800F43A
:101BE000003000900198401C0190009818B90198AD
:101BF000B0F5A06FF1D16248006800F4003010B178
:101C00000120009001E0002000900098012843D1BD
:101C10005C48006840F010005A49086008460068B7
:101C200020F0030008600846006840F002000860E9
:101C30005348406852494860084640684860084632
:101C4000406840F4806048600846406820F47C109A
:101C500048600846406840F4E8104860084600685C
:101C600040F08070086000BF4548006800F00070D8
:101C70000028F9D04248406820F0030040494860FD
:101C80000846406840F00200486000BF3C48406899
:101C900000F00C000828F9D10CBD10B5FFF792FF39
:101CA00010BD10B53648006840F0010034490860A6
:101CB0000846406834490840314948600846006891
:101CC000324908402E4908600846006820F4802008
:101CD00008600846406820F4FE0048604FF41F008A
:101CE0008860FFF7DAFF4FF000602949086010BDF7
:101CF00010B5002100200022214B5B6803F00C018D
:101D000021B1042906D0082928D107E0214B224C13
:101D1000236027E01F4B204C236023E0184B5B68B7
:101D200003F47010164B5B6803F48032022303EB5C
:101D3000904022B9194B4343174C23600DE0104BE0
:101D40005B6803F4003323B1144B4343124C23600C
:101D500003E0104B4343104C236003E00D4B0E4C4B
:101D6000236000BF00BF064B5B68C3F303130C4C3A
:101D7000E15C094B1B68CB40074C236010BD0000A1
:101D800000100240002002400000FFF8FFFFF6FEB6
:101D900008ED00E000127A002C00002000093D0050
:101DA00030000020421C10F8011B0029FBD1801AD2
:101DB00070470000064C074D06E0E06840F0010364
:101DC00094E8070098471034AC42F6D3FEF7B4F914
:101DD000F82000081821000802E008C8121F08C1F6
:101DE000002AFAD170477047002001E001C1121F9C
:101DF000002AFBD1704700000000000000002020F6
:101E000020202000200050505000000000005050C2
:101E1000F850F85050002078C07028F02000C0C85A
:101E200010204098180040A0A040A89068003020E2
:101E300040000000000010204040402010004020E2
:101E400010101020400020A8702070A82000202032
:101E500020F82020200000000000604080000000EA
:101E600000F80000000000000000006060000008B2
:101E7000102040800000708898A8C88870002060FA
:101E8000202020207000708808304080F800F8087A
:101E900010300888700010305090F8101000F88052
:101EA000F00808887000384080F088887000F808D2
:101EB00010204040400070888870888870007088CA
:101EC00088780810E000006060006060000000603A
:101ED0006000606080001020408040201000000002
:101EE000F800F80000004020100810204000708822
:101EF0001020200020007088B8A8B88078002050FA
:101F00008888F8888800F08888F08888F0007088D1
:101F1000808080887000F08888888888F000F88049
:101F200080F08080F800F88080F0808080007088E9
:101F30008080B8887800888888F888888800702031
:101F40002020202070003810101010906000889021
:101F5000A0C0A0908800808080808080F80088D811
:101F6000A8A8888888008888C8A898888800708869
:101F7000888888887000F08888F080808000708869
:101F80008888A8906800F08888F0A0908800708801
:101F9000807008887000F820202020202000888889
:101FA0008888888870008888888888502000888879
:101FB00088A8A8D8880088885020508888008888F9
:101FC000502020202000F80810204080F800F0C0A9
:101FD000C0C0C0C0F0000080402010080000781889
:101FE0001818181878002070A82020202000002041
:101FF00040F8402000002010080000000000000011
:10200000E010709068008080B0C888C8B000000000
:1020100070888080700008086898889868000000C0
:102020007088F0807000304840F040404000000070
:102030007088887808F08080B0C888888800200080
:102040000020202020001000003010101060808040
:1020500090A0C0A0980060202020202070000000E8
:1020600050A8A8A8A8000000B048484848000000B0
:102070007088888870000000F08888F080800000F8
:102080007888887808080000B04840404000000088
:1020900078807008F0004040F84040483000000070
:1020A0009090909068000000888888502000000080
:1020B000A8A8A8A850000000885020508800000060
:1020C0008888986808F00000F8102040F800204048
:1020D00040804040200020202000202020002010B0
:1020E000100810102000000040A810000000A850A8
:1020F000A850A850A80000001821000800000020E7
:1021000040000000D81D00085821000840000020B1
:1021100000040000E81D00080100000001000000AC
:102120004861636B6572727200000000000000007D
:10213000000000000102030401020304060708096D
:102140000204060800A24A0400000000000000008B
:0821500001020304060708095F
:0400000508000131BD
:00000001FF
